{
  "_format": "hh-sol-artifact-1",
  "contractName": "S0brNFTDay1",
  "sourceName": "contracts/S0brNFTDay1.sol",
  "abi": [
    {
      "inputs": [],
      "stateMutability": "nonpayable",
      "type": "constructor"
    },
    {
      "anonymous": false,
      "inputs": [
        {
          "indexed": true,
          "internalType": "address",
          "name": "owner",
          "type": "address"
        },
        {
          "indexed": true,
          "internalType": "address",
          "name": "approved",
          "type": "address"
        },
        {
          "indexed": true,
          "internalType": "uint256",
          "name": "tokenId",
          "type": "uint256"
        }
      ],
      "name": "Approval",
      "type": "event"
    },
    {
      "anonymous": false,
      "inputs": [
        {
          "indexed": true,
          "internalType": "address",
          "name": "owner",
          "type": "address"
        },
        {
          "indexed": true,
          "internalType": "address",
          "name": "operator",
          "type": "address"
        },
        {
          "indexed": false,
          "internalType": "bool",
          "name": "approved",
          "type": "bool"
        }
      ],
      "name": "ApprovalForAll",
      "type": "event"
    },
    {
      "anonymous": false,
      "inputs": [
        {
          "indexed": true,
          "internalType": "address",
          "name": "previousOwner",
          "type": "address"
        },
        {
          "indexed": true,
          "internalType": "address",
          "name": "newOwner",
          "type": "address"
        }
      ],
      "name": "OwnershipTransferred",
      "type": "event"
    },
    {
      "anonymous": false,
      "inputs": [
        {
          "indexed": true,
          "internalType": "address",
          "name": "from",
          "type": "address"
        },
        {
          "indexed": true,
          "internalType": "address",
          "name": "to",
          "type": "address"
        },
        {
          "indexed": true,
          "internalType": "uint256",
          "name": "tokenId",
          "type": "uint256"
        }
      ],
      "name": "Transfer",
      "type": "event"
    },
    {
      "inputs": [
        {
          "internalType": "address",
          "name": "to",
          "type": "address"
        },
        {
          "internalType": "uint256",
          "name": "tokenId",
          "type": "uint256"
        }
      ],
      "name": "approve",
      "outputs": [],
      "stateMutability": "nonpayable",
      "type": "function"
    },
    {
      "inputs": [
        {
          "internalType": "address",
          "name": "owner",
          "type": "address"
        }
      ],
      "name": "balanceOf",
      "outputs": [
        {
          "internalType": "uint256",
          "name": "",
          "type": "uint256"
        }
      ],
      "stateMutability": "view",
      "type": "function"
    },
    {
      "inputs": [
        {
          "internalType": "uint256",
          "name": "tokenId",
          "type": "uint256"
        }
      ],
      "name": "burn",
      "outputs": [],
      "stateMutability": "nonpayable",
      "type": "function"
    },
    {
      "inputs": [
        {
          "internalType": "uint256",
          "name": "tokenId",
          "type": "uint256"
        }
      ],
      "name": "getApproved",
      "outputs": [
        {
          "internalType": "address",
          "name": "",
          "type": "address"
        }
      ],
      "stateMutability": "view",
      "type": "function"
    },
    {
      "inputs": [
        {
          "internalType": "uint256",
          "name": "tokenId",
          "type": "uint256"
        }
      ],
      "name": "getBackgroundColor",
      "outputs": [
        {
          "internalType": "string",
          "name": "",
          "type": "string"
        }
      ],
      "stateMutability": "pure",
      "type": "function"
    },
    {
      "inputs": [
        {
          "internalType": "uint256",
          "name": "tokenId",
          "type": "uint256"
        }
      ],
      "name": "getHue",
      "outputs": [
        {
          "internalType": "string",
          "name": "",
          "type": "string"
        }
      ],
      "stateMutability": "pure",
      "type": "function"
    },
    {
      "inputs": [
        {
          "internalType": "uint256",
          "name": "tokenId",
          "type": "uint256"
        }
      ],
      "name": "getSaturation",
      "outputs": [
        {
          "internalType": "string",
          "name": "",
          "type": "string"
        }
      ],
      "stateMutability": "pure",
      "type": "function"
    },
    {
      "inputs": [
        {
          "internalType": "address",
          "name": "owner",
          "type": "address"
        },
        {
          "internalType": "address",
          "name": "operator",
          "type": "address"
        }
      ],
      "name": "isApprovedForAll",
      "outputs": [
        {
          "internalType": "bool",
          "name": "",
          "type": "bool"
        }
      ],
      "stateMutability": "view",
      "type": "function"
    },
    {
      "inputs": [
        {
          "internalType": "uint256",
          "name": "tokenId",
          "type": "uint256"
        }
      ],
      "name": "mint",
      "outputs": [],
      "stateMutability": "nonpayable",
      "type": "function"
    },
    {
      "inputs": [],
      "name": "name",
      "outputs": [
        {
          "internalType": "string",
          "name": "",
          "type": "string"
        }
      ],
      "stateMutability": "view",
      "type": "function"
    },
    {
      "inputs": [],
      "name": "owner",
      "outputs": [
        {
          "internalType": "address",
          "name": "",
          "type": "address"
        }
      ],
      "stateMutability": "view",
      "type": "function"
    },
    {
      "inputs": [
        {
          "internalType": "uint256",
          "name": "tokenId",
          "type": "uint256"
        }
      ],
      "name": "ownerOf",
      "outputs": [
        {
          "internalType": "address",
          "name": "",
          "type": "address"
        }
      ],
      "stateMutability": "view",
      "type": "function"
    },
    {
      "inputs": [],
      "name": "renounceOwnership",
      "outputs": [],
      "stateMutability": "nonpayable",
      "type": "function"
    },
    {
      "inputs": [
        {
          "internalType": "address",
          "name": "to",
          "type": "address"
        }
      ],
      "name": "safeMint",
      "outputs": [],
      "stateMutability": "nonpayable",
      "type": "function"
    },
    {
      "inputs": [
        {
          "internalType": "address",
          "name": "from",
          "type": "address"
        },
        {
          "internalType": "address",
          "name": "to",
          "type": "address"
        },
        {
          "internalType": "uint256",
          "name": "tokenId",
          "type": "uint256"
        }
      ],
      "name": "safeTransferFrom",
      "outputs": [],
      "stateMutability": "nonpayable",
      "type": "function"
    },
    {
      "inputs": [
        {
          "internalType": "address",
          "name": "from",
          "type": "address"
        },
        {
          "internalType": "address",
          "name": "to",
          "type": "address"
        },
        {
          "internalType": "uint256",
          "name": "tokenId",
          "type": "uint256"
        },
        {
          "internalType": "bytes",
          "name": "_data",
          "type": "bytes"
        }
      ],
      "name": "safeTransferFrom",
      "outputs": [],
      "stateMutability": "nonpayable",
      "type": "function"
    },
    {
      "inputs": [
        {
          "internalType": "address",
          "name": "operator",
          "type": "address"
        },
        {
          "internalType": "bool",
          "name": "approved",
          "type": "bool"
        }
      ],
      "name": "setApprovalForAll",
      "outputs": [],
      "stateMutability": "nonpayable",
      "type": "function"
    },
    {
      "inputs": [
        {
          "internalType": "bytes4",
          "name": "interfaceId",
          "type": "bytes4"
        }
      ],
      "name": "supportsInterface",
      "outputs": [
        {
          "internalType": "bool",
          "name": "",
          "type": "bool"
        }
      ],
      "stateMutability": "view",
      "type": "function"
    },
    {
      "inputs": [],
      "name": "symbol",
      "outputs": [
        {
          "internalType": "string",
          "name": "",
          "type": "string"
        }
      ],
      "stateMutability": "view",
      "type": "function"
    },
    {
      "inputs": [
        {
          "internalType": "uint256",
          "name": "tokenId",
          "type": "uint256"
        }
      ],
      "name": "tokenURI",
      "outputs": [
        {
          "internalType": "string",
          "name": "",
          "type": "string"
        }
      ],
      "stateMutability": "pure",
      "type": "function"
    },
    {
      "inputs": [
        {
          "internalType": "address",
          "name": "from",
          "type": "address"
        },
        {
          "internalType": "address",
          "name": "to",
          "type": "address"
        },
        {
          "internalType": "uint256",
          "name": "tokenId",
          "type": "uint256"
        }
      ],
      "name": "transferFrom",
      "outputs": [],
      "stateMutability": "nonpayable",
      "type": "function"
    },
    {
      "inputs": [
        {
          "internalType": "address",
          "name": "newOwner",
          "type": "address"
        }
      ],
      "name": "transferOwnership",
      "outputs": [],
      "stateMutability": "nonpayable",
      "type": "function"
    }
  ],
  "bytecode": "0x60806040523480156200001157600080fd5b506040518060400160405280600e81526020017f53306272204e46542044617920310000000000000000000000000000000000008152506040518060400160405280600881526020017f5330425244415931000000000000000000000000000000000000000000000000815250816000908051906020019062000096929190620001a6565b508060019080519060200190620000af929190620001a6565b505050620000d2620000c6620000d860201b60201c565b620000e060201b60201c565b620002bb565b600033905090565b6000600660009054906101000a900473ffffffffffffffffffffffffffffffffffffffff16905081600660006101000a81548173ffffffffffffffffffffffffffffffffffffffff021916908373ffffffffffffffffffffffffffffffffffffffff1602179055508173ffffffffffffffffffffffffffffffffffffffff168173ffffffffffffffffffffffffffffffffffffffff167f8be0079c531659141344cd1fd0a4f28419497f9722a3daafe3b4186f6b6457e060405160405180910390a35050565b828054620001b49062000285565b90600052602060002090601f016020900481019282620001d8576000855562000224565b82601f10620001f357805160ff191683800117855562000224565b8280016001018555821562000224579182015b828111156200022357825182559160200191906001019062000206565b5b50905062000233919062000237565b5090565b5b808211156200025257600081600090555060010162000238565b5090565b7f4e487b7100000000000000000000000000000000000000000000000000000000600052602260045260246000fd5b600060028204905060018216806200029e57607f821691505b60208210811415620002b557620002b462000256565b5b50919050565b613ed280620002cb6000396000f3fe608060405234801561001057600080fd5b50600436106101425760003560e01c80636352211e116100b8578063a0712d681161007c578063a0712d6814610387578063a22cb465146103a3578063b88d4fde146103bf578063c87b56dd146103db578063e985e9c51461040b578063f2fde38b1461043b57610142565b80636352211e146102e157806370a0823114610311578063715018a6146103415780638da5cb5b1461034b57806395d89b411461036957610142565b80632fd1c7d71161010a5780632fd1c7d7146101fd57806340d097c31461022d57806342842e0e1461024957806342966c68146102655780634671059f146102815780635e91b20b146102b157610142565b806301ffc9a71461014757806306fdde0314610177578063081812fc14610195578063095ea7b3146101c557806323b872dd146101e1575b600080fd5b610161600480360381019061015c9190612748565b610457565b60405161016e9190612790565b60405180910390f35b61017f610539565b60405161018c9190612844565b60405180910390f35b6101af60048036038101906101aa919061289c565b6105cb565b6040516101bc919061290a565b60405180910390f35b6101df60048036038101906101da9190612951565b610650565b005b6101fb60048036038101906101f69190612991565b610768565b005b6102176004803603810190610212919061289c565b6107c8565b6040516102249190612844565b60405180910390f35b610247600480360381019061024291906129e4565b610822565b005b610263600480360381019061025e9190612991565b6108c4565b005b61027f600480360381019061027a919061289c565b6108e4565b005b61029b6004803603810190610296919061289c565b610940565b6040516102a89190612844565b60405180910390f35b6102cb60048036038101906102c6919061289c565b610ab5565b6040516102d89190612844565b60405180910390f35b6102fb60048036038101906102f6919061289c565b610b0e565b604051610308919061290a565b60405180910390f35b61032b600480360381019061032691906129e4565b610bc0565b6040516103389190612a20565b60405180910390f35b610349610c78565b005b610353610d00565b604051610360919061290a565b60405180910390f35b610371610d2a565b60405161037e9190612844565b60405180910390f35b6103a1600480360381019061039c919061289c565b610dbc565b005b6103bd60048036038101906103b89190612a67565b610dd0565b005b6103d960048036038101906103d49190612bdc565b610de6565b005b6103f560048036038101906103f0919061289c565b610e48565b6040516104029190612844565b60405180910390f35b61042560048036038101906104209190612c5f565b6113d8565b6040516104329190612790565b60405180910390f35b610455600480360381019061045091906129e4565b61146c565b005b60007f80ac58cd000000000000000000000000000000000000000000000000000000007bffffffffffffffffffffffffffffffffffffffffffffffffffffffff1916827bffffffffffffffffffffffffffffffffffffffffffffffffffffffff1916148061052257507f5b5e139f000000000000000000000000000000000000000000000000000000007bffffffffffffffffffffffffffffffffffffffffffffffffffffffff1916827bffffffffffffffffffffffffffffffffffffffffffffffffffffffff1916145b80610532575061053182611564565b5b9050919050565b60606000805461054890612cce565b80601f016020809104026020016040519081016040528092919081815260200182805461057490612cce565b80156105c15780601f10610596576101008083540402835291602001916105c1565b820191906000526020600020905b8154815290600101906020018083116105a457829003601f168201915b5050505050905090565b60006105d6826115ce565b610615576040517f08c379a000000000000000000000000000000000000000000000000000000000815260040161060c90612d72565b60405180910390fd5b6004600083815260200190815260200160002060009054906101000a900473ffffffffffffffffffffffffffffffffffffffff169050919050565b600061065b82610b0e565b90508073ffffffffffffffffffffffffffffffffffffffff168373ffffffffffffffffffffffffffffffffffffffff1614156106cc576040517f08c379a00000000000000000000000000000000000000000000000000000000081526004016106c390612e04565b60405180910390fd5b8073ffffffffffffffffffffffffffffffffffffffff166106eb61163a565b73ffffffffffffffffffffffffffffffffffffffff16148061071a57506107198161071461163a565b6113d8565b5b610759576040517f08c379a000000000000000000000000000000000000000000000000000000000815260040161075090612e96565b60405180910390fd5b6107638383611642565b505050565b61077961077361163a565b826116fb565b6107b8576040517f08c379a00000000000000000000000000000000000000000000000000000000081526004016107af90612f28565b60405180910390fd5b6107c38383836117d9565b505050565b606060006107fc6107d884611a40565b6040516020016107e89190612f84565b604051602081830303815290604052611ba1565b905060006101688261080e9190612fca565b905061081981611bd4565b92505050919050565b61082a61163a565b73ffffffffffffffffffffffffffffffffffffffff16610848610d00565b73ffffffffffffffffffffffffffffffffffffffff161461089e576040517f08c379a000000000000000000000000000000000000000000000000000000000815260040161089590613047565b60405180910390fd5b60006108aa6007611d35565b90506108b66007611d43565b6108c08282611d59565b5050565b6108df83838360405180602001604052806000815250610de6565b505050565b6108f56108ef61163a565b826116fb565b610934576040517f08c379a000000000000000000000000000000000000000000000000000000000815260040161092b906130d9565b60405180910390fd5b61093d81611d77565b50565b6060600061097461095084611a40565b6040516020016109609190612f84565b604051602081830303815290604052611ba1565b905060008160001b905060006040518060400160405280601081526020017f303132333435363738394142434445460000000000000000000000000000000081525090506000600667ffffffffffffffff8111156109d5576109d4612ab1565b5b6040519080825280601f01601f191660200182016040528015610a075781602001600182028036833780820191505090505b50905060005b6006811015610aa85782600f858360208110610a2c57610a2b6130f9565b5b1a60f81b60f81c1660ff1681518110610a4857610a476130f9565b5b602001015160f81c60f81b828281518110610a6657610a656130f9565b5b60200101907effffffffffffffffffffffffffffffffffffffffffffffffffffffffffffff1916908160001a9053508080610aa090613157565b915050610a0d565b5080945050505050919050565b60606000610ae9610ac584611a40565b604051602001610ad59190612f84565b604051602081830303815290604052611ba1565b90506000606482610afa9190612fca565b9050610b0581611bd4565b92505050919050565b6000806002600084815260200190815260200160002060009054906101000a900473ffffffffffffffffffffffffffffffffffffffff169050600073ffffffffffffffffffffffffffffffffffffffff168173ffffffffffffffffffffffffffffffffffffffff161415610bb7576040517f08c379a0000000000000000000000000000000000000000000000000000000008152600401610bae90613212565b60405180910390fd5b80915050919050565b60008073ffffffffffffffffffffffffffffffffffffffff168273ffffffffffffffffffffffffffffffffffffffff161415610c31576040517f08c379a0000000000000000000000000000000000000000000000000000000008152600401610c28906132a4565b60405180910390fd5b600360008373ffffffffffffffffffffffffffffffffffffffff1673ffffffffffffffffffffffffffffffffffffffff168152602001908152602001600020549050919050565b610c8061163a565b73ffffffffffffffffffffffffffffffffffffffff16610c9e610d00565b73ffffffffffffffffffffffffffffffffffffffff1614610cf4576040517f08c379a0000000000000000000000000000000000000000000000000000000008152600401610ceb90613047565b60405180910390fd5b610cfe6000611e94565b565b6000600660009054906101000a900473ffffffffffffffffffffffffffffffffffffffff16905090565b606060018054610d3990612cce565b80601f0160208091040260200160405190810160405280929190818152602001828054610d6590612cce565b8015610db25780601f10610d8757610100808354040283529160200191610db2565b820191906000526020600020905b815481529060010190602001808311610d9557829003601f168201915b5050505050905090565b610dcd610dc761163a565b82611d59565b50565b610de2610ddb61163a565b8383611f5a565b5050565b610df7610df161163a565b836116fb565b610e36576040517f08c379a0000000000000000000000000000000000000000000000000000000008152600401610e2d90612f28565b60405180910390fd5b610e42848484846120c7565b50505050565b6060610e526126b4565b6000610e5d846107c8565b610e6685610ab5565b604051602001610e77929190613310565b60405160208183030381529060405290506000610e9385610940565b90506040518060c00160405280608a8152602001613c3e608a913983600060118110610ec257610ec16130f9565b5b60200201819052508083600160118110610edf57610ede6130f9565b5b6020020181905250604051806080016040528060598152602001613ded6059913983600260118110610f1457610f136130f9565b5b60200201819052508183600360118110610f3157610f306130f9565b5b60200201819052506040518060800160405280604b8152602001613ba0604b913983600460118110610f6657610f656130f9565b5b60200201819052508183600560118110610f8357610f826130f9565b5b60200201819052506040518060800160405280604b8152602001613cc8604b913983600660118110610fb857610fb76130f9565b5b60200201819052508183600760118110610fd557610fd46130f9565b5b6020020181905250604051806080016040528060578152602001613e46605791398360086011811061100a576110096130f9565b5b60200201819052508183600960118110611027576110266130f9565b5b60200201819052506040518060800160405280604b8152602001613da2604b913983600a6011811061105c5761105b6130f9565b5b60200201819052508183600b60118110611079576110786130f9565b5b60200201819052506040518060800160405280604f8152602001613d13604f913983600c601181106110ae576110ad6130f9565b5b60200201819052508183600d601181106110cb576110ca6130f9565b5b6020020181905250604051806080016040528060538152602001613beb6053913983600e60118110611100576110ff6130f9565b5b60200201819052508183600f6011811061111d5761111c6130f9565b5b60200201819052506040518060400160405280600f81526020017f252c39342529222f3e3c2f7376673e00000000000000000000000000000000008152508360106011811061116f5761116e6130f9565b5b602002018190525060008360006011811061118d5761118c6130f9565b5b6020020151846001601181106111a6576111a56130f9565b5b6020020151856002601181106111bf576111be6130f9565b5b6020020151866003601181106111d8576111d76130f9565b5b6020020151876004601181106111f1576111f06130f9565b5b60200201518860056011811061120a576112096130f9565b5b602002015189600660118110611223576112226130f9565b5b60200201518a60076011811061123c5761123b6130f9565b5b60200201518b600860118110611255576112546130f9565b5b60200201516040516020016112729998979695949392919061333f565b60405160208183030381529060405290508084600960118110611298576112976130f9565b5b602002015185600a601181106112b1576112b06130f9565b5b602002015186600b601181106112ca576112c96130f9565b5b602002015187600c601181106112e3576112e26130f9565b5b602002015188600d601181106112fc576112fb6130f9565b5b602002015189600e60118110611315576113146130f9565b5b60200201518a600f6011811061132e5761132d6130f9565b5b60200201518b601060118110611347576113466130f9565b5b60200201516040516020016113649998979695949392919061333f565b604051602081830303815290604052905060006113a761138383612123565b60405160200161139391906134ee565b604051602081830303815290604052612123565b9050806040516020016113ba9190613567565b60405160208183030381529060405291508195505050505050919050565b6000600560008473ffffffffffffffffffffffffffffffffffffffff1673ffffffffffffffffffffffffffffffffffffffff16815260200190815260200160002060008373ffffffffffffffffffffffffffffffffffffffff1673ffffffffffffffffffffffffffffffffffffffff16815260200190815260200160002060009054906101000a900460ff16905092915050565b61147461163a565b73ffffffffffffffffffffffffffffffffffffffff16611492610d00565b73ffffffffffffffffffffffffffffffffffffffff16146114e8576040517f08c379a00000000000000000000000000000000000000000000000000000000081526004016114df90613047565b60405180910390fd5b600073ffffffffffffffffffffffffffffffffffffffff168173ffffffffffffffffffffffffffffffffffffffff161415611558576040517f08c379a000000000000000000000000000000000000000000000000000000000815260040161154f906135fb565b60405180910390fd5b61156181611e94565b50565b60007f01ffc9a7000000000000000000000000000000000000000000000000000000007bffffffffffffffffffffffffffffffffffffffffffffffffffffffff1916827bffffffffffffffffffffffffffffffffffffffffffffffffffffffff1916149050919050565b60008073ffffffffffffffffffffffffffffffffffffffff166002600084815260200190815260200160002060009054906101000a900473ffffffffffffffffffffffffffffffffffffffff1673ffffffffffffffffffffffffffffffffffffffff1614159050919050565b600033905090565b816004600083815260200190815260200160002060006101000a81548173ffffffffffffffffffffffffffffffffffffffff021916908373ffffffffffffffffffffffffffffffffffffffff160217905550808273ffffffffffffffffffffffffffffffffffffffff166116b583610b0e565b73ffffffffffffffffffffffffffffffffffffffff167f8c5be1e5ebec7d5bd14f71427d1e84f3dd0314c0f7b2291e5b200ac8c7c3b92560405160405180910390a45050565b6000611706826115ce565b611745576040517f08c379a000000000000000000000000000000000000000000000000000000000815260040161173c9061368d565b60405180910390fd5b600061175083610b0e565b90508073ffffffffffffffffffffffffffffffffffffffff168473ffffffffffffffffffffffffffffffffffffffff1614806117bf57508373ffffffffffffffffffffffffffffffffffffffff166117a7846105cb565b73ffffffffffffffffffffffffffffffffffffffff16145b806117d057506117cf81856113d8565b5b91505092915050565b8273ffffffffffffffffffffffffffffffffffffffff166117f982610b0e565b73ffffffffffffffffffffffffffffffffffffffff161461184f576040517f08c379a00000000000000000000000000000000000000000000000000000000081526004016118469061371f565b60405180910390fd5b600073ffffffffffffffffffffffffffffffffffffffff168273ffffffffffffffffffffffffffffffffffffffff1614156118bf576040517f08c379a00000000000000000000000000000000000000000000000000000000081526004016118b6906137b1565b60405180910390fd5b6118ca8383836122bb565b6118d5600082611642565b6001600360008573ffffffffffffffffffffffffffffffffffffffff1673ffffffffffffffffffffffffffffffffffffffff168152602001908152602001600020600082825461192591906137d1565b925050819055506001600360008473ffffffffffffffffffffffffffffffffffffffff1673ffffffffffffffffffffffffffffffffffffffff168152602001908152602001600020600082825461197c9190613805565b92505081905550816002600083815260200190815260200160002060006101000a81548173ffffffffffffffffffffffffffffffffffffffff021916908373ffffffffffffffffffffffffffffffffffffffff160217905550808273ffffffffffffffffffffffffffffffffffffffff168473ffffffffffffffffffffffffffffffffffffffff167fddf252ad1be2c89b69c2b068fc378daa952ba7f163c4a11628f55a4df523b3ef60405160405180910390a4611a3b8383836122c0565b505050565b60606000821415611a88576040518060400160405280600181526020017f30000000000000000000000000000000000000000000000000000000000000008152509050611b9c565b600082905060005b60008214611aba578080611aa390613157565b915050600a82611ab3919061385b565b9150611a90565b60008167ffffffffffffffff811115611ad657611ad5612ab1565b5b6040519080825280601f01601f191660200182016040528015611b085781602001600182028036833780820191505090505b5090505b60008514611b9557600182611b2191906137d1565b9150600a85611b309190612fca565b6030611b3c9190613805565b60f81b818381518110611b5257611b516130f9565b5b60200101907effffffffffffffffffffffffffffffffffffffffffffffffffffffffffffff1916908160001a905350600a85611b8e919061385b565b9450611b0c565b8093505050505b919050565b600081604051602001611bb49190612f84565b6040516020818303038152906040528051906020012060001c9050919050565b60606000821415611c1c576040518060400160405280600181526020017f30000000000000000000000000000000000000000000000000000000000000008152509050611d30565b600082905060005b60008214611c4e578080611c3790613157565b915050600a82611c47919061385b565b9150611c24565b60008167ffffffffffffffff811115611c6a57611c69612ab1565b5b6040519080825280601f01601f191660200182016040528015611c9c5781602001600182028036833780820191505090505b5090505b60008514611d2957600182611cb591906137d1565b9150600a85611cc49190612fca565b6030611cd09190613805565b60f81b818381518110611ce657611ce56130f9565b5b60200101907effffffffffffffffffffffffffffffffffffffffffffffffffffffffffffff1916908160001a905350600a85611d22919061385b565b9450611ca0565b8093505050505b919050565b600081600001549050919050565b6001816000016000828254019250508190555050565b611d738282604051806020016040528060008152506122c5565b5050565b6000611d8282610b0e565b9050611d90816000846122bb565b611d9b600083611642565b6001600360008373ffffffffffffffffffffffffffffffffffffffff1673ffffffffffffffffffffffffffffffffffffffff1681526020019081526020016000206000828254611deb91906137d1565b925050819055506002600083815260200190815260200160002060006101000a81549073ffffffffffffffffffffffffffffffffffffffff021916905581600073ffffffffffffffffffffffffffffffffffffffff168273ffffffffffffffffffffffffffffffffffffffff167fddf252ad1be2c89b69c2b068fc378daa952ba7f163c4a11628f55a4df523b3ef60405160405180910390a4611e90816000846122c0565b5050565b6000600660009054906101000a900473ffffffffffffffffffffffffffffffffffffffff16905081600660006101000a81548173ffffffffffffffffffffffffffffffffffffffff021916908373ffffffffffffffffffffffffffffffffffffffff1602179055508173ffffffffffffffffffffffffffffffffffffffff168173ffffffffffffffffffffffffffffffffffffffff167f8be0079c531659141344cd1fd0a4f28419497f9722a3daafe3b4186f6b6457e060405160405180910390a35050565b8173ffffffffffffffffffffffffffffffffffffffff168373ffffffffffffffffffffffffffffffffffffffff161415611fc9576040517f08c379a0000000000000000000000000000000000000000000000000000000008152600401611fc0906138d8565b60405180910390fd5b80600560008573ffffffffffffffffffffffffffffffffffffffff1673ffffffffffffffffffffffffffffffffffffffff16815260200190815260200160002060008473ffffffffffffffffffffffffffffffffffffffff1673ffffffffffffffffffffffffffffffffffffffff16815260200190815260200160002060006101000a81548160ff0219169083151502179055508173ffffffffffffffffffffffffffffffffffffffff168373ffffffffffffffffffffffffffffffffffffffff167f17307eab39ab6107e8899845ad3d59bd9653f200f220920489ca2b5937696c31836040516120ba9190612790565b60405180910390a3505050565b6120d28484846117d9565b6120de84848484612320565b61211d576040517f08c379a00000000000000000000000000000000000000000000000000000000081526004016121149061396a565b60405180910390fd5b50505050565b6060600082519050600081141561214c57604051806020016040528060008152509150506122b6565b6000600360028361215d9190613805565b612167919061385b565b6004612173919061398a565b905060006020826121849190613805565b67ffffffffffffffff81111561219d5761219c612ab1565b5b6040519080825280601f01601f1916602001820160405280156121cf5781602001600182028036833780820191505090505b5090506000604051806060016040528060408152602001613d62604091399050600181016020830160005b868110156122735760038101905062ffffff818a015116603f8160121c168401518060081b905060ff603f83600c1c1686015116810190508060081b905060ff603f8360061c1686015116810190508060081b905060ff603f831686015116810190508060e01b905080845260048401935050506121fa565b50600386066001811461228d576002811461229d576122a8565b613d3d60f01b60028303526122a8565b603d60f81b60018303525b508484525050819450505050505b919050565b505050565b505050565b6122cf83836124b7565b6122dc6000848484612320565b61231b576040517f08c379a00000000000000000000000000000000000000000000000000000000081526004016123129061396a565b60405180910390fd5b505050565b60006123418473ffffffffffffffffffffffffffffffffffffffff16612691565b156124aa578373ffffffffffffffffffffffffffffffffffffffff1663150b7a0261236a61163a565b8786866040518563ffffffff1660e01b815260040161238c9493929190613a39565b602060405180830381600087803b1580156123a657600080fd5b505af19250505080156123d757506040513d601f19601f820116820180604052508101906123d49190613a9a565b60015b61245a573d8060008114612407576040519150601f19603f3d011682016040523d82523d6000602084013e61240c565b606091505b50600081511415612452576040517f08c379a00000000000000000000000000000000000000000000000000000000081526004016124499061396a565b60405180910390fd5b805181602001fd5b63150b7a0260e01b7bffffffffffffffffffffffffffffffffffffffffffffffffffffffff1916817bffffffffffffffffffffffffffffffffffffffffffffffffffffffff1916149150506124af565b600190505b949350505050565b600073ffffffffffffffffffffffffffffffffffffffff168273ffffffffffffffffffffffffffffffffffffffff161415612527576040517f08c379a000000000000000000000000000000000000000000000000000000000815260040161251e90613b13565b60405180910390fd5b612530816115ce565b15612570576040517f08c379a000000000000000000000000000000000000000000000000000000000815260040161256790613b7f565b60405180910390fd5b61257c600083836122bb565b6001600360008473ffffffffffffffffffffffffffffffffffffffff1673ffffffffffffffffffffffffffffffffffffffff16815260200190815260200160002060008282546125cc9190613805565b92505081905550816002600083815260200190815260200160002060006101000a81548173ffffffffffffffffffffffffffffffffffffffff021916908373ffffffffffffffffffffffffffffffffffffffff160217905550808273ffffffffffffffffffffffffffffffffffffffff16600073ffffffffffffffffffffffffffffffffffffffff167fddf252ad1be2c89b69c2b068fc378daa952ba7f163c4a11628f55a4df523b3ef60405160405180910390a461268d600083836122c0565b5050565b6000808273ffffffffffffffffffffffffffffffffffffffff163b119050919050565b6040518061022001604052806011905b60608152602001906001900390816126c45790505090565b6000604051905090565b600080fd5b600080fd5b60007fffffffff0000000000000000000000000000000000000000000000000000000082169050919050565b612725816126f0565b811461273057600080fd5b50565b6000813590506127428161271c565b92915050565b60006020828403121561275e5761275d6126e6565b5b600061276c84828501612733565b91505092915050565b60008115159050919050565b61278a81612775565b82525050565b60006020820190506127a56000830184612781565b92915050565b600081519050919050565b600082825260208201905092915050565b60005b838110156127e55780820151818401526020810190506127ca565b838111156127f4576000848401525b50505050565b6000601f19601f8301169050919050565b6000612816826127ab565b61282081856127b6565b93506128308185602086016127c7565b612839816127fa565b840191505092915050565b6000602082019050818103600083015261285e818461280b565b905092915050565b6000819050919050565b61287981612866565b811461288457600080fd5b50565b60008135905061289681612870565b92915050565b6000602082840312156128b2576128b16126e6565b5b60006128c084828501612887565b91505092915050565b600073ffffffffffffffffffffffffffffffffffffffff82169050919050565b60006128f4826128c9565b9050919050565b612904816128e9565b82525050565b600060208201905061291f60008301846128fb565b92915050565b61292e816128e9565b811461293957600080fd5b50565b60008135905061294b81612925565b92915050565b60008060408385031215612968576129676126e6565b5b60006129768582860161293c565b925050602061298785828601612887565b9150509250929050565b6000806000606084860312156129aa576129a96126e6565b5b60006129b88682870161293c565b93505060206129c98682870161293c565b92505060406129da86828701612887565b9150509250925092565b6000602082840312156129fa576129f96126e6565b5b6000612a088482850161293c565b91505092915050565b612a1a81612866565b82525050565b6000602082019050612a356000830184612a11565b92915050565b612a4481612775565b8114612a4f57600080fd5b50565b600081359050612a6181612a3b565b92915050565b60008060408385031215612a7e57612a7d6126e6565b5b6000612a8c8582860161293c565b9250506020612a9d85828601612a52565b9150509250929050565b600080fd5b600080fd5b7f4e487b7100000000000000000000000000000000000000000000000000000000600052604160045260246000fd5b612ae9826127fa565b810181811067ffffffffffffffff82111715612b0857612b07612ab1565b5b80604052505050565b6000612b1b6126dc565b9050612b278282612ae0565b919050565b600067ffffffffffffffff821115612b4757612b46612ab1565b5b612b50826127fa565b9050602081019050919050565b82818337600083830152505050565b6000612b7f612b7a84612b2c565b612b11565b905082815260208101848484011115612b9b57612b9a612aac565b5b612ba6848285612b5d565b509392505050565b600082601f830112612bc357612bc2612aa7565b5b8135612bd3848260208601612b6c565b91505092915050565b60008060008060808587031215612bf657612bf56126e6565b5b6000612c048782880161293c565b9450506020612c158782880161293c565b9350506040612c2687828801612887565b925050606085013567ffffffffffffffff811115612c4757612c466126eb565b5b612c5387828801612bae565b91505092959194509250565b60008060408385031215612c7657612c756126e6565b5b6000612c848582860161293c565b9250506020612c958582860161293c565b9150509250929050565b7f4e487b7100000000000000000000000000000000000000000000000000000000600052602260045260246000fd5b60006002820490506001821680612ce657607f821691505b60208210811415612cfa57612cf9612c9f565b5b50919050565b7f4552433732313a20617070726f76656420717565727920666f72206e6f6e657860008201527f697374656e7420746f6b656e0000000000000000000000000000000000000000602082015250565b6000612d5c602c836127b6565b9150612d6782612d00565b604082019050919050565b60006020820190508181036000830152612d8b81612d4f565b9050919050565b7f4552433732313a20617070726f76616c20746f2063757272656e74206f776e6560008201527f7200000000000000000000000000000000000000000000000000000000000000602082015250565b6000612dee6021836127b6565b9150612df982612d92565b604082019050919050565b60006020820190508181036000830152612e1d81612de1565b9050919050565b7f4552433732313a20617070726f76652063616c6c6572206973206e6f74206f7760008201527f6e6572206e6f7220617070726f76656420666f7220616c6c0000000000000000602082015250565b6000612e806038836127b6565b9150612e8b82612e24565b604082019050919050565b60006020820190508181036000830152612eaf81612e73565b9050919050565b7f4552433732313a207472616e736665722063616c6c6572206973206e6f74206f60008201527f776e6572206e6f7220617070726f766564000000000000000000000000000000602082015250565b6000612f126031836127b6565b9150612f1d82612eb6565b604082019050919050565b60006020820190508181036000830152612f4181612f05565b9050919050565b600081905092915050565b6000612f5e826127ab565b612f688185612f48565b9350612f788185602086016127c7565b80840191505092915050565b6000612f908284612f53565b915081905092915050565b7f4e487b7100000000000000000000000000000000000000000000000000000000600052601260045260246000fd5b6000612fd582612866565b9150612fe083612866565b925082612ff057612fef612f9b565b5b828206905092915050565b7f4f776e61626c653a2063616c6c6572206973206e6f7420746865206f776e6572600082015250565b60006130316020836127b6565b915061303c82612ffb565b602082019050919050565b6000602082019050818103600083015261306081613024565b9050919050565b7f4552433732314275726e61626c653a2063616c6c6572206973206e6f74206f7760008201527f6e6572206e6f7220617070726f76656400000000000000000000000000000000602082015250565b60006130c36030836127b6565b91506130ce82613067565b604082019050919050565b600060208201905081810360008301526130f2816130b6565b9050919050565b7f4e487b7100000000000000000000000000000000000000000000000000000000600052603260045260246000fd5b7f4e487b7100000000000000000000000000000000000000000000000000000000600052601160045260246000fd5b600061316282612866565b91507fffffffffffffffffffffffffffffffffffffffffffffffffffffffffffffffff82141561319557613194613128565b5b600182019050919050565b7f4552433732313a206f776e657220717565727920666f72206e6f6e657869737460008201527f656e7420746f6b656e0000000000000000000000000000000000000000000000602082015250565b60006131fc6029836127b6565b9150613207826131a0565b604082019050919050565b6000602082019050818103600083015261322b816131ef565b9050919050565b7f4552433732313a2062616c616e636520717565727920666f7220746865207a6560008201527f726f206164647265737300000000000000000000000000000000000000000000602082015250565b600061328e602a836127b6565b915061329982613232565b604082019050919050565b600060208201905081810360008301526132bd81613281565b9050919050565b7f2c00000000000000000000000000000000000000000000000000000000000000600082015250565b60006132fa600183612f48565b9150613305826132c4565b600182019050919050565b600061331c8285612f53565b9150613327826132ed565b91506133338284612f53565b91508190509392505050565b600061334b828c612f53565b9150613357828b612f53565b9150613363828a612f53565b915061336f8289612f53565b915061337b8288612f53565b91506133878287612f53565b91506133938286612f53565b915061339f8285612f53565b91506133ab8284612f53565b91508190509a9950505050505050505050565b7f7b226e616d65223a20224677656233204469616d6f6e64204e4654222c20226460008201527f65736372697074696f6e223a202254686973204e465420726570726573656e7460208201527f732070617274696369706174696f6e20696e20467765623320323032322e222c60408201527f2022696d616765223a2022646174613a696d6167652f7376672b786d6c3b626160608201527f736536342c000000000000000000000000000000000000000000000000000000608082015250565b600061348c608583612f48565b9150613497826133be565b608582019050919050565b7f227d000000000000000000000000000000000000000000000000000000000000600082015250565b60006134d8600283612f48565b91506134e3826134a2565b600282019050919050565b60006134f98261347f565b91506135058284612f53565b9150613510826134cb565b915081905092915050565b7f646174613a6170706c69636174696f6e2f6a736f6e3b6261736536342c000000600082015250565b6000613551601d83612f48565b915061355c8261351b565b601d82019050919050565b600061357282613544565b915061357e8284612f53565b915081905092915050565b7f4f776e61626c653a206e6577206f776e657220697320746865207a65726f206160008201527f6464726573730000000000000000000000000000000000000000000000000000602082015250565b60006135e56026836127b6565b91506135f082613589565b604082019050919050565b60006020820190508181036000830152613614816135d8565b9050919050565b7f4552433732313a206f70657261746f7220717565727920666f72206e6f6e657860008201527f697374656e7420746f6b656e0000000000000000000000000000000000000000602082015250565b6000613677602c836127b6565b91506136828261361b565b604082019050919050565b600060208201905081810360008301526136a68161366a565b9050919050565b7f4552433732313a207472616e736665722066726f6d20696e636f72726563742060008201527f6f776e6572000000000000000000000000000000000000000000000000000000602082015250565b60006137096025836127b6565b9150613714826136ad565b604082019050919050565b60006020820190508181036000830152613738816136fc565b9050919050565b7f4552433732313a207472616e7366657220746f20746865207a65726f2061646460008201527f7265737300000000000000000000000000000000000000000000000000000000602082015250565b600061379b6024836127b6565b91506137a68261373f565b604082019050919050565b600060208201905081810360008301526137ca8161378e565b9050919050565b60006137dc82612866565b91506137e783612866565b9250828210156137fa576137f9613128565b5b828203905092915050565b600061381082612866565b915061381b83612866565b9250827fffffffffffffffffffffffffffffffffffffffffffffffffffffffffffffffff038211156138505761384f613128565b5b828201905092915050565b600061386682612866565b915061387183612866565b92508261388157613880612f9b565b5b828204905092915050565b7f4552433732313a20617070726f766520746f2063616c6c657200000000000000600082015250565b60006138c26019836127b6565b91506138cd8261388c565b602082019050919050565b600060208201905081810360008301526138f1816138b5565b9050919050565b7f4552433732313a207472616e7366657220746f206e6f6e20455243373231526560008201527f63656976657220696d706c656d656e7465720000000000000000000000000000602082015250565b60006139546032836127b6565b915061395f826138f8565b604082019050919050565b6000602082019050818103600083015261398381613947565b9050919050565b600061399582612866565b91506139a083612866565b9250817fffffffffffffffffffffffffffffffffffffffffffffffffffffffffffffffff04831182151516156139d9576139d8613128565b5b828202905092915050565b600081519050919050565b600082825260208201905092915050565b6000613a0b826139e4565b613a1581856139ef565b9350613a258185602086016127c7565b613a2e816127fa565b840191505092915050565b6000608082019050613a4e60008301876128fb565b613a5b60208301866128fb565b613a686040830185612a11565b8181036060830152613a7a8184613a00565b905095945050505050565b600081519050613a948161271c565b92915050565b600060208284031215613ab057613aaf6126e6565b5b6000613abe84828501613a85565b91505092915050565b7f4552433732313a206d696e7420746f20746865207a65726f2061646472657373600082015250565b6000613afd6020836127b6565b9150613b0882613ac7565b602082019050919050565b60006020820190508181036000830152613b2c81613af0565b9050919050565b7f4552433732313a20746f6b656e20616c7265616479206d696e74656400000000600082015250565b6000613b69601c836127b6565b9150613b7482613b33565b602082019050919050565b60006020820190508181036000830152613b9881613b5c565b905091905056fe252c37392529222f3e3c7061746820643d224d3138302e363031203134304c3231352e333332203230332e363839483133344c3138302e363031203134305a222066696c6c3d2268736c28252c39342529222f3e3c7061746820643d224d3231352e333332203230332e3638394c3235352e393938203337322e3035364c313334203230332e363839483231352e3333325a222066696c6c3d2268736c283c73766720786d6c6e733d22687474703a2f2f7777772e77332e6f72672f323030302f73766722207072657365727665417370656374526174696f3d22784d696e594d696e206d656574222076696577426f783d223020302035313220353132223e3c726563742077696474683d223130302522206865696768743d2231303025222066696c6c3d2223252c38322529222f3e3c7061746820643d224d3333312e34203134304c3239362e363634203230332e3638394c3235352e39393820313430483333312e345a222066696c6c3d2268736c28252c39342529222f3e3c7061746820643d224d3235352e393938203134304c3239362e363634203230332e363839483231352e3333324c3235352e393938203134305a222066696c6c3d2268736c284142434445464748494a4b4c4d4e4f505152535455565758595a6162636465666768696a6b6c6d6e6f707172737475767778797a303132333435363738392b2f252c38322529222f3e3c7061746820643d224d3333312e34203134304c3337372e393935203230332e363839483239362e3636344c3333312e34203134305a222066696c6c3d2268736c28222f3e3c7061746820643d224d323536203337322e3035374c333738203230332e3638364c3333312e3420313430483138302e364c313334203230332e3638364c323536203337322e3035375a222066696c6c3d2268736c28252c38322529222f3e3c7061746820643d224d3239362e363634203230332e3638394c3235352e393938203337322e3035364c3231352e333332203230332e363839483239362e3636345a222066696c6c3d2268736c28a264697066735822122035bbf26fe25246e0bcc2dd28ea5b9df779dc65eb1fd04bb7d310f32207b533d864736f6c63430008090033",
  "linkReferences": {},
  "deployedLinkReferences": {}
}