{
  "_format": "hh-sol-artifact-1",
  "contractName": "S0brGame",
  "sourceName": "contracts/S0brGame.sol",
  "abi": [
    {
      "anonymous": false,
      "inputs": [
        {
          "indexed": true,
          "internalType": "address",
          "name": "previousOwner",
          "type": "address"
        },
        {
          "indexed": true,
          "internalType": "address",
          "name": "newOwner",
          "type": "address"
        }
      ],
      "name": "OwnershipTransferred",
      "type": "event"
    },
    {
      "anonymous": false,
      "inputs": [
        {
          "indexed": true,
          "internalType": "address",
          "name": "_user",
          "type": "address"
        },
        {
          "indexed": false,
          "internalType": "uint256",
          "name": "_timestamp",
          "type": "uint256"
        }
      ],
      "name": "madeCommitment",
      "type": "event"
    },
    {
      "stateMutability": "payable",
      "type": "fallback"
    },
    {
      "inputs": [
        {
          "internalType": "address payable",
          "name": "_to",
          "type": "address"
        }
      ],
      "name": "faucet",
      "outputs": [],
      "stateMutability": "nonpayable",
      "type": "function"
    },
    {
      "inputs": [],
      "name": "getBalance",
      "outputs": [
        {
          "internalType": "uint256",
          "name": "",
          "type": "uint256"
        }
      ],
      "stateMutability": "view",
      "type": "function"
    },
    {
      "inputs": [
        {
          "internalType": "address",
          "name": "_user",
          "type": "address"
        }
      ],
      "name": "getCommitments",
      "outputs": [
        {
          "internalType": "uint256[]",
          "name": "",
          "type": "uint256[]"
        }
      ],
      "stateMutability": "view",
      "type": "function"
    },
    {
      "inputs": [],
      "name": "getFaucetDripAmount",
      "outputs": [
        {
          "internalType": "uint256",
          "name": "",
          "type": "uint256"
        }
      ],
      "stateMutability": "view",
      "type": "function"
    },
    {
      "inputs": [
        {
          "internalType": "address",
          "name": "_user",
          "type": "address"
        }
      ],
      "name": "getLatestCommitment",
      "outputs": [
        {
          "internalType": "uint256",
          "name": "",
          "type": "uint256"
        }
      ],
      "stateMutability": "view",
      "type": "function"
    },
    {
      "inputs": [],
      "name": "getRequiredNFTAddress",
      "outputs": [
        {
          "internalType": "address",
          "name": "",
          "type": "address"
        }
      ],
      "stateMutability": "view",
      "type": "function"
    },
    {
      "inputs": [],
      "name": "getTimeout",
      "outputs": [
        {
          "internalType": "uint256",
          "name": "",
          "type": "uint256"
        }
      ],
      "stateMutability": "view",
      "type": "function"
    },
    {
      "inputs": [
        {
          "internalType": "address",
          "name": "_user",
          "type": "address"
        }
      ],
      "name": "hasRequiredNFT",
      "outputs": [
        {
          "internalType": "bool",
          "name": "",
          "type": "bool"
        }
      ],
      "stateMutability": "view",
      "type": "function"
    },
    {
      "inputs": [
        {
          "internalType": "contract IERC20",
          "name": "_token",
          "type": "address"
        },
        {
          "internalType": "uint256",
          "name": "_faucetDripBase",
          "type": "uint256"
        },
        {
          "internalType": "uint256",
          "name": "_faucetDripDecimal",
          "type": "uint256"
        },
        {
          "internalType": "uint256",
          "name": "_timeout",
          "type": "uint256"
        }
      ],
      "name": "initialize",
      "outputs": [],
      "stateMutability": "nonpayable",
      "type": "function"
    },
    {
      "inputs": [],
      "name": "owner",
      "outputs": [
        {
          "internalType": "address",
          "name": "",
          "type": "address"
        }
      ],
      "stateMutability": "view",
      "type": "function"
    },
    {
      "inputs": [],
      "name": "renounceOwnership",
      "outputs": [],
      "stateMutability": "nonpayable",
      "type": "function"
    },
    {
      "inputs": [
        {
          "internalType": "address",
          "name": "newOwner",
          "type": "address"
        }
      ],
      "name": "transferOwnership",
      "outputs": [],
      "stateMutability": "nonpayable",
      "type": "function"
    },
    {
      "stateMutability": "payable",
      "type": "receive"
    }
  ],
  "bytecode": "0x608060405234801561001057600080fd5b50611846806100206000396000f3fe6080604052600436106100ab5760003560e01c8063715018a611610064578063715018a6146101ea5780638da5cb5b14610201578063b86d1d631461022c578063d3b0061414610255578063edb69ebb14610280578063f2fde38b146102ab576100b2565b80630522bf03146100b457806312065fe0146100f15780632f6b61ed1461011c57806333b31838146101595780633499ba95146101965780634ec81af1146101c1576100b2565b366100b257005b005b3480156100c057600080fd5b506100db60048036038101906100d69190610e6c565b6102d4565b6040516100e89190610f61565b60405180910390f35b3480156100fd57600080fd5b50610106610408565b6040516101139190610f92565b60405180910390f35b34801561012857600080fd5b50610143600480360381019061013e9190610e6c565b6104ba565b6040516101509190610fc8565b60405180910390f35b34801561016557600080fd5b50610180600480360381019061017b9190610e6c565b610587565b60405161018d9190610f92565b60405180910390f35b3480156101a257600080fd5b506101ab610653565b6040516101b89190610f92565b60405180910390f35b3480156101cd57600080fd5b506101e860048036038101906101e3919061104d565b61065d565b005b3480156101f657600080fd5b506101ff6107b3565b005b34801561020d57600080fd5b5061021661083b565b60405161022391906110c3565b60405180910390f35b34801561023857600080fd5b50610253600480360381019061024e919061111c565b610865565b005b34801561026157600080fd5b5061026a610b21565b60405161027791906110c3565b60405180910390f35b34801561028c57600080fd5b50610295610b4b565b6040516102a29190610f92565b60405180910390f35b3480156102b757600080fd5b506102d260048036038101906102cd9190610e6c565b610b55565b005b60606000606960008473ffffffffffffffffffffffffffffffffffffffff1673ffffffffffffffffffffffffffffffffffffffff1681526020019081526020016000208054905011156103b657606960008373ffffffffffffffffffffffffffffffffffffffff1673ffffffffffffffffffffffffffffffffffffffff1681526020019081526020016000208054806020026020016040519081016040528092919081815260200182805480156103aa57602002820191906000526020600020905b815481526020019060010190808311610396575b50505050509050610403565b600067ffffffffffffffff8111156103d1576103d0611149565b5b6040519080825280602002602001820160405280156103ff5781602001602082028036833780820191505090505b5090505b919050565b6000606560009054906101000a900473ffffffffffffffffffffffffffffffffffffffff1673ffffffffffffffffffffffffffffffffffffffff166370a08231306040518263ffffffff1660e01b815260040161046591906110c3565b60206040518083038186803b15801561047d57600080fd5b505afa158015610491573d6000803e3d6000fd5b505050506040513d601f19601f820116820180604052508101906104b5919061118d565b905090565b600080606660009054906101000a900473ffffffffffffffffffffffffffffffffffffffff16905060008173ffffffffffffffffffffffffffffffffffffffff166370a08231856040518263ffffffff1660e01b815260040161051d91906110c3565b60206040518083038186803b15801561053557600080fd5b505afa158015610549573d6000803e3d6000fd5b505050506040513d601f19601f8201168201806040525081019061056d919061118d565b1061057c576001915050610582565b60009150505b919050565b600080606960008473ffffffffffffffffffffffffffffffffffffffff1673ffffffffffffffffffffffffffffffffffffffff168152602001908152602001600020805490509050600081111561064857606960008473ffffffffffffffffffffffffffffffffffffffff1673ffffffffffffffffffffffffffffffffffffffff16815260200190815260200160002060018261062491906111e9565b815481106106355761063461121d565b5b906000526020600020015491505061064e565b60009150505b919050565b6000606854905090565b600060019054906101000a900460ff166106855760008054906101000a900460ff161561068e565b61068d610c4d565b5b6106cd576040517f08c379a00000000000000000000000000000000000000000000000000000000081526004016106c4906112cf565b60405180910390fd5b60008060019054906101000a900460ff16159050801561071d576001600060016101000a81548160ff02191690831515021790555060016000806101000a81548160ff0219169083151502179055505b610725610c5e565b84606560006101000a81548173ffffffffffffffffffffffffffffffffffffffff021916908373ffffffffffffffffffffffffffffffffffffffff16021790555082600a6107739190611422565b8461077e919061146d565b6067819055508160688190555080156107ac5760008060016101000a81548160ff0219169083151502179055505b5050505050565b6107bb610cb7565b73ffffffffffffffffffffffffffffffffffffffff166107d961083b565b73ffffffffffffffffffffffffffffffffffffffff161461082f576040517f08c379a000000000000000000000000000000000000000000000000000000000815260040161082690611513565b60405180910390fd5b6108396000610cbf565b565b6000603360009054906101000a900473ffffffffffffffffffffffffffffffffffffffff16905090565b606754606560009054906101000a900473ffffffffffffffffffffffffffffffffffffffff1673ffffffffffffffffffffffffffffffffffffffff166370a08231306040518263ffffffff1660e01b81526004016108c391906110c3565b60206040518083038186803b1580156108db57600080fd5b505afa1580156108ef573d6000803e3d6000fd5b505050506040513d601f19601f82011682018060405250810190610913919061118d565b1015610954576040517f08c379a000000000000000000000000000000000000000000000000000000000815260040161094b9061157f565b60405180910390fd5b603c606854610963919061146d565b4261096e91906111e9565b61097782610587565b11156109b8576040517f08c379a00000000000000000000000000000000000000000000000000000000081526004016109af906115eb565b60405180910390fd5b606960008273ffffffffffffffffffffffffffffffffffffffff1673ffffffffffffffffffffffffffffffffffffffff168152602001908152602001600020429080600181540180825580915050600190039060005260206000200160009091909190915055606560009054906101000a900473ffffffffffffffffffffffffffffffffffffffff1673ffffffffffffffffffffffffffffffffffffffff1663a9059cbb826067546040518363ffffffff1660e01b8152600401610a7d92919061166a565b602060405180830381600087803b158015610a9757600080fd5b505af1158015610aab573d6000803e3d6000fd5b505050506040513d601f19601f82011682018060405250810190610acf91906116bf565b508073ffffffffffffffffffffffffffffffffffffffff167f3c3b7a1cece9968590d28ef16f1e96e728812e9341960491885ce825dd572a3142604051610b169190610f92565b60405180910390a250565b6000606660009054906101000a900473ffffffffffffffffffffffffffffffffffffffff16905090565b6000606754905090565b610b5d610cb7565b73ffffffffffffffffffffffffffffffffffffffff16610b7b61083b565b73ffffffffffffffffffffffffffffffffffffffff1614610bd1576040517f08c379a0000000000000000000000000000000000000000000000000000000008152600401610bc890611513565b60405180910390fd5b600073ffffffffffffffffffffffffffffffffffffffff168173ffffffffffffffffffffffffffffffffffffffff161415610c41576040517f08c379a0000000000000000000000000000000000000000000000000000000008152600401610c389061175e565b60405180910390fd5b610c4a81610cbf565b50565b6000610c5830610d85565b15905090565b600060019054906101000a900460ff16610cad576040517f08c379a0000000000000000000000000000000000000000000000000000000008152600401610ca4906117f0565b60405180910390fd5b610cb5610da8565b565b600033905090565b6000603360009054906101000a900473ffffffffffffffffffffffffffffffffffffffff16905081603360006101000a81548173ffffffffffffffffffffffffffffffffffffffff021916908373ffffffffffffffffffffffffffffffffffffffff1602179055508173ffffffffffffffffffffffffffffffffffffffff168173ffffffffffffffffffffffffffffffffffffffff167f8be0079c531659141344cd1fd0a4f28419497f9722a3daafe3b4186f6b6457e060405160405180910390a35050565b6000808273ffffffffffffffffffffffffffffffffffffffff163b119050919050565b600060019054906101000a900460ff16610df7576040517f08c379a0000000000000000000000000000000000000000000000000000000008152600401610dee906117f0565b60405180910390fd5b610e07610e02610cb7565b610cbf565b565b600080fd5b600073ffffffffffffffffffffffffffffffffffffffff82169050919050565b6000610e3982610e0e565b9050919050565b610e4981610e2e565b8114610e5457600080fd5b50565b600081359050610e6681610e40565b92915050565b600060208284031215610e8257610e81610e09565b5b6000610e9084828501610e57565b91505092915050565b600081519050919050565b600082825260208201905092915050565b6000819050602082019050919050565b6000819050919050565b610ed881610ec5565b82525050565b6000610eea8383610ecf565b60208301905092915050565b6000602082019050919050565b6000610f0e82610e99565b610f188185610ea4565b9350610f2383610eb5565b8060005b83811015610f54578151610f3b8882610ede565b9750610f4683610ef6565b925050600181019050610f27565b5085935050505092915050565b60006020820190508181036000830152610f7b8184610f03565b905092915050565b610f8c81610ec5565b82525050565b6000602082019050610fa76000830184610f83565b92915050565b60008115159050919050565b610fc281610fad565b82525050565b6000602082019050610fdd6000830184610fb9565b92915050565b6000610fee82610e2e565b9050919050565b610ffe81610fe3565b811461100957600080fd5b50565b60008135905061101b81610ff5565b92915050565b61102a81610ec5565b811461103557600080fd5b50565b60008135905061104781611021565b92915050565b6000806000806080858703121561106757611066610e09565b5b60006110758782880161100c565b945050602061108687828801611038565b935050604061109787828801611038565b92505060606110a887828801611038565b91505092959194509250565b6110bd81610e2e565b82525050565b60006020820190506110d860008301846110b4565b92915050565b60006110e982610e0e565b9050919050565b6110f9816110de565b811461110457600080fd5b50565b600081359050611116816110f0565b92915050565b60006020828403121561113257611131610e09565b5b600061114084828501611107565b91505092915050565b7f4e487b7100000000000000000000000000000000000000000000000000000000600052604160045260246000fd5b60008151905061118781611021565b92915050565b6000602082840312156111a3576111a2610e09565b5b60006111b184828501611178565b91505092915050565b7f4e487b7100000000000000000000000000000000000000000000000000000000600052601160045260246000fd5b60006111f482610ec5565b91506111ff83610ec5565b925082821015611212576112116111ba565b5b828203905092915050565b7f4e487b7100000000000000000000000000000000000000000000000000000000600052603260045260246000fd5b600082825260208201905092915050565b7f496e697469616c697a61626c653a20636f6e747261637420697320616c72656160008201527f647920696e697469616c697a6564000000000000000000000000000000000000602082015250565b60006112b9602e8361124c565b91506112c48261125d565b604082019050919050565b600060208201905081810360008301526112e8816112ac565b9050919050565b60008160011c9050919050565b6000808291508390505b600185111561134657808604811115611322576113216111ba565b5b60018516156113315780820291505b808102905061133f856112ef565b9450611306565b94509492505050565b60008261135f576001905061141b565b8161136d576000905061141b565b8160018114611383576002811461138d576113bc565b600191505061141b565b60ff84111561139f5761139e6111ba565b5b8360020a9150848211156113b6576113b56111ba565b5b5061141b565b5060208310610133831016604e8410600b84101617156113f15782820a9050838111156113ec576113eb6111ba565b5b61141b565b6113fe84848460016112fc565b92509050818404811115611415576114146111ba565b5b81810290505b9392505050565b600061142d82610ec5565b915061143883610ec5565b92506114657fffffffffffffffffffffffffffffffffffffffffffffffffffffffffffffffff848461134f565b905092915050565b600061147882610ec5565b915061148383610ec5565b9250817fffffffffffffffffffffffffffffffffffffffffffffffffffffffffffffffff04831182151516156114bc576114bb6111ba565b5b828202905092915050565b7f4f776e61626c653a2063616c6c6572206973206e6f7420746865206f776e6572600082015250565b60006114fd60208361124c565b9150611508826114c7565b602082019050919050565b6000602082019050818103600083015261152c816114f0565b9050919050565b7f496e73756666696369656e74204661756365742046756e647300000000000000600082015250565b600061156960198361124c565b915061157482611533565b602082019050919050565b600060208201905081810360008301526115988161155c565b9050919050565b7f546f6f206561726c7920746f20636f6d6d697420616761696e00000000000000600082015250565b60006115d560198361124c565b91506115e08261159f565b602082019050919050565b60006020820190508181036000830152611604816115c8565b9050919050565b6000819050919050565b600061163061162b61162684610e0e565b61160b565b610e0e565b9050919050565b600061164282611615565b9050919050565b600061165482611637565b9050919050565b61166481611649565b82525050565b600060408201905061167f600083018561165b565b61168c6020830184610f83565b9392505050565b61169c81610fad565b81146116a757600080fd5b50565b6000815190506116b981611693565b92915050565b6000602082840312156116d5576116d4610e09565b5b60006116e3848285016116aa565b91505092915050565b7f4f776e61626c653a206e6577206f776e657220697320746865207a65726f206160008201527f6464726573730000000000000000000000000000000000000000000000000000602082015250565b600061174860268361124c565b9150611753826116ec565b604082019050919050565b600060208201905081810360008301526117778161173b565b9050919050565b7f496e697469616c697a61626c653a20636f6e7472616374206973206e6f74206960008201527f6e697469616c697a696e67000000000000000000000000000000000000000000602082015250565b60006117da602b8361124c565b91506117e58261177e565b604082019050919050565b60006020820190508181036000830152611809816117cd565b905091905056fea26469706673582212209a785515d16e56f9cd5a427d69c5c2d88a04216f24c2aec0b34eed3ba59f1ab064736f6c63430008090033",
  "linkReferences": {},
  "deployedLinkReferences": {}
}